{
  "_format": "hh-sol-artifact-1",
  "contractName": "Farming",
  "sourceName": "contracts/farming/Farming.sol",
  "abi": [
    {
      "inputs": [
        {
          "internalType": "address",
          "name": "_ptn",
          "type": "address"
        },
        {
          "internalType": "uint256",
          "name": "_ptnPerBlock",
          "type": "uint256"
        },
        {
          "internalType": "uint256",
          "name": "_startBlock",
          "type": "uint256"
        },
        {
          "internalType": "address",
          "name": "_multisig",
          "type": "address"
        }
      ],
      "stateMutability": "nonpayable",
      "type": "constructor"
    },
    {
      "anonymous": false,
      "inputs": [
        {
          "indexed": true,
          "internalType": "uint256",
          "name": "pid",
          "type": "uint256"
        },
        {
          "indexed": false,
          "internalType": "uint256",
          "name": "allocPoint",
          "type": "uint256"
        },
        {
          "indexed": true,
          "internalType": "address",
          "name": "token",
          "type": "address"
        },
        {
          "indexed": false,
          "internalType": "uint256",
          "name": "bonusMultiplier",
          "type": "uint256"
        },
        {
          "indexed": false,
          "internalType": "uint256",
          "name": "bonusEndBlock",
          "type": "uint256"
        }
      ],
      "name": "AddPool",
      "type": "event"
    },
    {
      "anonymous": false,
      "inputs": [
        {
          "indexed": true,
          "internalType": "address",
          "name": "user",
          "type": "address"
        },
        {
          "indexed": true,
          "internalType": "uint256",
          "name": "pid",
          "type": "uint256"
        },
        {
          "indexed": false,
          "internalType": "uint256",
          "name": "amount",
          "type": "uint256"
        }
      ],
      "name": "Deposit",
      "type": "event"
    },
    {
      "anonymous": false,
      "inputs": [
        {
          "indexed": true,
          "internalType": "address",
          "name": "user",
          "type": "address"
        },
        {
          "indexed": true,
          "internalType": "uint256",
          "name": "pid",
          "type": "uint256"
        },
        {
          "indexed": false,
          "internalType": "uint256",
          "name": "amount",
          "type": "uint256"
        }
      ],
      "name": "EmergencyWithdraw",
      "type": "event"
    },
    {
      "anonymous": false,
      "inputs": [
        {
          "indexed": true,
          "internalType": "address",
          "name": "previousOwner",
          "type": "address"
        },
        {
          "indexed": true,
          "internalType": "address",
          "name": "newOwner",
          "type": "address"
        }
      ],
      "name": "OwnershipTransferred",
      "type": "event"
    },
    {
      "anonymous": false,
      "inputs": [
        {
          "indexed": true,
          "internalType": "uint256",
          "name": "pid",
          "type": "uint256"
        },
        {
          "indexed": false,
          "internalType": "uint256",
          "name": "allocPoint",
          "type": "uint256"
        }
      ],
      "name": "SetPool",
      "type": "event"
    },
    {
      "anonymous": false,
      "inputs": [
        {
          "indexed": true,
          "internalType": "uint256",
          "name": "pid",
          "type": "uint256"
        },
        {
          "indexed": false,
          "internalType": "uint256",
          "name": "lastRewardBlock",
          "type": "uint256"
        },
        {
          "indexed": false,
          "internalType": "uint256",
          "name": "lpSupply",
          "type": "uint256"
        },
        {
          "indexed": false,
          "internalType": "uint256",
          "name": "accPtnPerShare",
          "type": "uint256"
        }
      ],
      "name": "UpdatePool",
      "type": "event"
    },
    {
      "anonymous": false,
      "inputs": [
        {
          "indexed": true,
          "internalType": "uint256",
          "name": "pid",
          "type": "uint256"
        },
        {
          "indexed": false,
          "internalType": "uint256",
          "name": "multiplier",
          "type": "uint256"
        }
      ],
      "name": "UpdatePoolMultiplier",
      "type": "event"
    },
    {
      "anonymous": false,
      "inputs": [
        {
          "indexed": false,
          "internalType": "uint256",
          "name": "rewardPerBlock",
          "type": "uint256"
        }
      ],
      "name": "UpdateRewardPerBlock",
      "type": "event"
    },
    {
      "anonymous": false,
      "inputs": [
        {
          "indexed": true,
          "internalType": "address",
          "name": "user",
          "type": "address"
        },
        {
          "indexed": true,
          "internalType": "uint256",
          "name": "pid",
          "type": "uint256"
        },
        {
          "indexed": false,
          "internalType": "uint256",
          "name": "amount",
          "type": "uint256"
        }
      ],
      "name": "Withdraw",
      "type": "event"
    },
    {
      "inputs": [
        {
          "internalType": "uint256",
          "name": "_allocPoint",
          "type": "uint256"
        },
        {
          "internalType": "address",
          "name": "_lpToken",
          "type": "address"
        },
        {
          "internalType": "bool",
          "name": "_withUpdate",
          "type": "bool"
        },
        {
          "internalType": "uint256",
          "name": "_bonusMultiplier",
          "type": "uint256"
        },
        {
          "internalType": "uint256",
          "name": "_bonusEndBlock",
          "type": "uint256"
        }
      ],
      "name": "add",
      "outputs": [],
      "stateMutability": "nonpayable",
      "type": "function"
    },
    {
      "inputs": [
        {
          "internalType": "address",
          "name": "",
          "type": "address"
        }
      ],
      "name": "addedTokens",
      "outputs": [
        {
          "internalType": "bool",
          "name": "",
          "type": "bool"
        }
      ],
      "stateMutability": "view",
      "type": "function"
    },
    {
      "inputs": [
        {
          "internalType": "uint256",
          "name": "_pid",
          "type": "uint256"
        },
        {
          "internalType": "uint256",
          "name": "_amount",
          "type": "uint256"
        }
      ],
      "name": "deposit",
      "outputs": [],
      "stateMutability": "nonpayable",
      "type": "function"
    },
    {
      "inputs": [
        {
          "internalType": "uint256",
          "name": "_pid",
          "type": "uint256"
        }
      ],
      "name": "emergencyWithdraw",
      "outputs": [],
      "stateMutability": "nonpayable",
      "type": "function"
    },
    {
      "inputs": [
        {
          "internalType": "uint256",
          "name": "_pid",
          "type": "uint256"
        },
        {
          "internalType": "uint256",
          "name": "_from",
          "type": "uint256"
        },
        {
          "internalType": "uint256",
          "name": "_to",
          "type": "uint256"
        }
      ],
      "name": "getMultiplier",
      "outputs": [
        {
          "internalType": "uint256",
          "name": "",
          "type": "uint256"
        }
      ],
      "stateMutability": "view",
      "type": "function"
    },
    {
      "inputs": [],
      "name": "massUpdatePools",
      "outputs": [],
      "stateMutability": "nonpayable",
      "type": "function"
    },
    {
      "inputs": [
        {
          "internalType": "address",
          "name": "_operator",
          "type": "address"
        },
        {
          "internalType": "address",
          "name": "_from",
          "type": "address"
        },
        {
          "internalType": "uint256",
          "name": "_amount",
          "type": "uint256"
        },
        {
          "internalType": "bytes",
          "name": "_data",
          "type": "bytes"
        }
      ],
      "name": "onKIP7Received",
      "outputs": [
        {
          "internalType": "bytes4",
          "name": "",
          "type": "bytes4"
        }
      ],
      "stateMutability": "pure",
      "type": "function"
    },
    {
      "inputs": [],
      "name": "owner",
      "outputs": [
        {
          "internalType": "address",
          "name": "",
          "type": "address"
        }
      ],
      "stateMutability": "view",
      "type": "function"
    },
    {
      "inputs": [
        {
          "internalType": "uint256",
          "name": "_pid",
          "type": "uint256"
        },
        {
          "internalType": "address",
          "name": "_user",
          "type": "address"
        }
      ],
      "name": "pendingPtn",
      "outputs": [
        {
          "internalType": "uint256",
          "name": "",
          "type": "uint256"
        }
      ],
      "stateMutability": "view",
      "type": "function"
    },
    {
      "inputs": [
        {
          "internalType": "uint256",
          "name": "",
          "type": "uint256"
        }
      ],
      "name": "poolInfo",
      "outputs": [
        {
          "internalType": "address",
          "name": "lpToken",
          "type": "address"
        },
        {
          "internalType": "uint32",
          "name": "bonusMultiplier",
          "type": "uint32"
        },
        {
          "internalType": "uint64",
          "name": "bonusEndBlock",
          "type": "uint64"
        },
        {
          "internalType": "uint256",
          "name": "stakingTokenTotalAmount",
          "type": "uint256"
        },
        {
          "internalType": "uint64",
          "name": "allocPoint",
          "type": "uint64"
        },
        {
          "internalType": "uint64",
          "name": "lastRewardBlock",
          "type": "uint64"
        },
        {
          "internalType": "uint128",
          "name": "accPtnPerShare",
          "type": "uint128"
        }
      ],
      "stateMutability": "view",
      "type": "function"
    },
    {
      "inputs": [],
      "name": "poolLength",
      "outputs": [
        {
          "internalType": "uint256",
          "name": "",
          "type": "uint256"
        }
      ],
      "stateMutability": "view",
      "type": "function"
    },
    {
      "inputs": [],
      "name": "ptn",
      "outputs": [
        {
          "internalType": "contract PlatformToken",
          "name": "",
          "type": "address"
        }
      ],
      "stateMutability": "view",
      "type": "function"
    },
    {
      "inputs": [],
      "name": "ptnPerBlock",
      "outputs": [
        {
          "internalType": "uint256",
          "name": "",
          "type": "uint256"
        }
      ],
      "stateMutability": "view",
      "type": "function"
    },
    {
      "inputs": [],
      "name": "renounceOwnership",
      "outputs": [],
      "stateMutability": "nonpayable",
      "type": "function"
    },
    {
      "inputs": [
        {
          "internalType": "uint256",
          "name": "_pid",
          "type": "uint256"
        },
        {
          "internalType": "uint256",
          "name": "_allocPoint",
          "type": "uint256"
        },
        {
          "internalType": "bool",
          "name": "_withUpdate",
          "type": "bool"
        }
      ],
      "name": "set",
      "outputs": [],
      "stateMutability": "nonpayable",
      "type": "function"
    },
    {
      "inputs": [],
      "name": "startBlock",
      "outputs": [
        {
          "internalType": "uint256",
          "name": "",
          "type": "uint256"
        }
      ],
      "stateMutability": "view",
      "type": "function"
    },
    {
      "inputs": [],
      "name": "totalAllocPoint",
      "outputs": [
        {
          "internalType": "uint256",
          "name": "",
          "type": "uint256"
        }
      ],
      "stateMutability": "view",
      "type": "function"
    },
    {
      "inputs": [
        {
          "internalType": "address",
          "name": "newOwner",
          "type": "address"
        }
      ],
      "name": "transferOwnership",
      "outputs": [],
      "stateMutability": "nonpayable",
      "type": "function"
    },
    {
      "inputs": [
        {
          "internalType": "uint256",
          "name": "_pid",
          "type": "uint256"
        },
        {
          "internalType": "uint256",
          "name": "_multiplier",
          "type": "uint256"
        }
      ],
      "name": "updateMultiplier",
      "outputs": [],
      "stateMutability": "nonpayable",
      "type": "function"
    },
    {
      "inputs": [
        {
          "internalType": "uint256",
          "name": "_pid",
          "type": "uint256"
        }
      ],
      "name": "updatePool",
      "outputs": [],
      "stateMutability": "nonpayable",
      "type": "function"
    },
    {
      "inputs": [
        {
          "internalType": "uint256",
          "name": "_ptnPerBlock",
          "type": "uint256"
        }
      ],
      "name": "updatePtnPerBlock",
      "outputs": [],
      "stateMutability": "nonpayable",
      "type": "function"
    },
    {
      "inputs": [
        {
          "internalType": "uint256",
          "name": "",
          "type": "uint256"
        },
        {
          "internalType": "address",
          "name": "",
          "type": "address"
        }
      ],
      "name": "userInfo",
      "outputs": [
        {
          "internalType": "uint256",
          "name": "amount",
          "type": "uint256"
        },
        {
          "internalType": "uint256",
          "name": "rewardDebt",
          "type": "uint256"
        }
      ],
      "stateMutability": "view",
      "type": "function"
    },
    {
      "inputs": [
        {
          "internalType": "uint256",
          "name": "_pid",
          "type": "uint256"
        },
        {
          "internalType": "uint256",
          "name": "_amount",
          "type": "uint256"
        }
      ],
      "name": "withdraw",
      "outputs": [],
      "stateMutability": "nonpayable",
      "type": "function"
    }
  ],
  "bytecode": "0x60806040523480156200001157600080fd5b5060405162001da038038062001da08339810160408190526200003491620000ea565b6200003f336200007d565b60018055600280546001600160a01b0319166001600160a01b0386161790556003839055600882905562000073816200007d565b5050505062000135565b600080546001600160a01b038381166001600160a01b0319831681178455604051919092169283917f8be0079c531659141344cd1fd0a4f28419497f9722a3daafe3b4186f6b6457e09190a35050565b80516001600160a01b0381168114620000e557600080fd5b919050565b600080600080608085870312156200010157600080fd5b6200010c85620000cd565b935060208501519250604085015191506200012a60608601620000cd565b905092959194509250565b611c5b80620001456000396000f3fe608060405234801561001057600080fd5b506004361061014d5760003560e01c8063715018a6116100c35780639d188c221161007c5780639d188c2214610336578063af359b251461036d578063b4fdeaba14610380578063bad60f1814610389578063e2bbb1581461039c578063f2fde38b146103af57600080fd5b8063715018a61461026557806379d12ffb1461026d5780637bafb029146102a057806388a399f3146102b35780638da5cb5b146102de57806393f1a40b146102ef57600080fd5b806348d957e41161011557806348d957e4146101fe57806351eb05a6146102115780635312ea8e1461022457806362e006c714610237578063630b5ba11461024a57806364482f791461025257600080fd5b8063081e3eda146101525780631526fe271461016957806317caf6f1146101d7578063441a3e70146101e057806348cd4cb1146101f5575b600080fd5b6004545b6040519081526020015b60405180910390f35b61017c610177366004611870565b6103c2565b604080516001600160a01b03909816885263ffffffff90961660208801526001600160401b03948516958701959095526060860192909252821660808501521660a08301526001600160801b031660c082015260e001610160565b61015660075481565b6101f36101ee366004611889565b61043e565b005b61015660085481565b6101f361020c366004611870565b61066d565b6101f361021f366004611870565b6106da565b6101f3610232366004611870565b610960565b6101f36102453660046118d7565b610a97565b6101f3610d77565b6101f3610260366004611925565b610d9e565b6101f3610f0c565b61029061027b36600461195a565b60056020526000908152604090205460ff1681565b6040519015158152602001610160565b6101566102ae366004611975565b610f42565b6002546102c6906001600160a01b031681565b6040516001600160a01b039091168152602001610160565b6000546001600160a01b03166102c6565b6103216102fd3660046119a1565b60066020908152600092835260408084209091529082529020805460019091015482565b60408051928352602083019190915201610160565b6103546103443660046119e3565b634e8c461160e11b949350505050565b6040516001600160e01b03199091168152602001610160565b61015661037b3660046119a1565b6110e1565b61015660035481565b6101f3610397366004611889565b611294565b6101f36103aa366004611889565b611350565b6101f36103bd36600461195a565b61152f565b600481815481106103d257600080fd5b60009182526020909120600390910201805460018201546002909201546001600160a01b0382169350600160a01b820463ffffffff1692600160c01b9092046001600160401b03908116929181811691600160401b82041690600160801b90046001600160801b031687565b6002600154141561046a5760405162461bcd60e51b815260040161046190611abe565b60405180910390fd5b600260018190555060006004838154811061048757610487611af5565b6000918252602080832086845260068252604080852033865290925292208054600390920290920192508311156104f55760405162461bcd60e51b81526020600482015260126024820152711dda5d1a191c985dce881b9bdd0819dbdbd960721b6044820152606401610461565b6104fe846106da565b6001810154600283015482546000929164e8d4a510009161052f91600160801b90046001600160801b031690611b21565b6105399190611b40565b6105439190611b62565b905080156105555761055533826115ca565b83156105f3578382600001600082825461056f9190611b62565b925050819055508383600101600082825461058a9190611b62565b9091555050825460405163423f6cef60e01b8152336004820152602481018690526001600160a01b039091169063423f6cef90604401600060405180830381600087803b1580156105da57600080fd5b505af11580156105ee573d6000803e3d6000fd5b505050505b6002830154825464e8d4a510009161061c91600160801b9091046001600160801b031690611b21565b6106269190611b40565b6001830155604051848152859033907ff279e6a1f5e320cca91135676d9cb6e44ca8a08c0b88342bcdb1144f6511b5689060200160405180910390a3505060018055505050565b6000546001600160a01b031633146106975760405162461bcd60e51b815260040161046190611b79565b61069f610d77565b60038190556040518181527fc606f355efeddd89e42e997e575220501445590def6dd71bf081c2c51d6c0a4d9060200160405180910390a150565b6000600482815481106106ef576106ef611af5565b906000526020600020906003020190508060020160089054906101000a90046001600160401b03166001600160401b031643111561095c5780546040516370a0823160e01b81523060048201526000916001600160a01b0316906370a0823190602401602060405180830381865afa15801561076f573d6000803e3d6000fd5b505050506040513d601f19601f820116820180604052508101906107939190611bae565b905080156108c45760028201546000906107bf908590600160401b90046001600160401b031643610f42565b60075460028501546003549293506000926001600160401b03909116906107e69085611b21565b6107f09190611b21565b6107fa9190611b40565b6002546040516340c10f1960e01b8152306004820152602481018390529192506001600160a01b0316906340c10f1990604401600060405180830381600087803b15801561084757600080fd5b505af115801561085b573d6000803e3d6000fd5b505050506108838364e8d4a51000836108749190611b21565b61087e9190611b40565b6116e6565b60028501546108a29190600160801b90046001600160801b0316611bc7565b6002850180546001600160801b03928316600160801b02921691909117905550505b6108cd43611753565b6002830180546fffffffffffffffff00000000000000001916600160401b6001600160401b039384168102919091179182905560408051918304909316815260208101849052600160801b9091046001600160801b03169181019190915283907f3be3541fc42237d611b30329040bfa4569541d156560acdbbae57640d20b8f469060600160405180910390a2505b5050565b600260015414156109835760405162461bcd60e51b815260040161046190611abe565b60026001819055506000600482815481106109a0576109a0611af5565b60009182526020808320858452600682526040808520338652909252908320805460039390930290910160018101805491955091938392916109e3908490611b62565b909155505060008083556001830155825460405163423f6cef60e01b8152336004820152602481018390526001600160a01b039091169063423f6cef90604401600060405180830381600087803b158015610a3d57600080fd5b505af1158015610a51573d6000803e3d6000fd5b50506040518381528692503391507fbb757047c2b5f3974fe26b7c10f732e7bce710b0952a71082702781e62ae0595906020015b60405180910390a35050600180555050565b6000546001600160a01b03163314610ac15760405162461bcd60e51b815260040161046190611b79565b6002546001600160a01b0385811691161415610b1f5760405162461bcd60e51b815260206004820152601860248201527f43616e2774207374616b652072657761726420746f6b656e00000000000000006044820152606401610461565b6001600160a01b03841660009081526005602052604090205460ff1615610b7e5760405162461bcd60e51b8152602060048201526013602482015272151bdad95b88185b1c9958591e481859191959606a1b6044820152606401610461565b8215610b8c57610b8c610d77565b60006008544311610b9f57600854610ba1565b435b905085600754610bb19190611bf2565b60078190555060046040518060e00160405280876001600160a01b03168152602001610bdc866117bb565b63ffffffff168152602001610bf085611753565b6001600160401b0316815260200160008152602001610c0e89611753565b6001600160401b03168152602001610c2584611753565b6001600160401b0390811682526000602092830181905284546001818101875595825283822085516003909202018054868601516040808901518716600160c01b026001600160c01b0363ffffffff909316600160a01b026001600160c01b03199094166001600160a01b0396871617939093179190911691909117825560608701518289015560808701516002909201805460a089015160c0909901516001600160801b03908116600160801b02998816600160401b026fffffffffffffffffffffffffffffffff19909216949097169390931792909217909416959095179094559289168084526005909252909120805460ff1916831790556004549091610d2e91611b62565b60408051898152602081018790529081018590527fcb295bb60abeeb687f819f8557e33080c20eb264bce90585dd400e011adaceaf9060600160405180910390a3505050505050565b60045460005b8181101561095c57610d8e816106da565b610d9781611c0a565b9050610d7d565b6000546001600160a01b03163314610dc85760405162461bcd60e51b815260040161046190611b79565b8015610dd657610dd6610d77565b600060048481548110610deb57610deb611af5565b60009182526020909120600260039092020101546001600160401b03169050828114610ecc57610e1a83611753565b60048581548110610e2d57610e2d611af5565b906000526020600020906003020160020160006101000a8154816001600160401b0302191690836001600160401b031602179055508281600754610e719190611b62565b610e7b9190611bf2565b6007819055610ecc5760405162461bcd60e51b815260206004820152601860248201527f53686f756c64206265206d6f7265207468616e207a65726f00000000000000006044820152606401610461565b837fc0cfd54d2de2b55f1e6e108d3ec53ff0a1abe6055401d32c61e9433b747ef9f884604051610efe91815260200190565b60405180910390a250505050565b6000546001600160a01b03163314610f365760405162461bcd60e51b815260040161046190611b79565b610f406000611820565b565b600060048481548110610f5757610f57611af5565b6000918252602090912060039091020154600160c01b90046001600160401b03168211610fca5760048481548110610f9157610f91611af5565b6000918252602090912060039091020154600160a01b900463ffffffff16610fb98484611b62565b610fc39190611b21565b90506110da565b60048481548110610fdd57610fdd611af5565b6000918252602090912060039091020154600160c01b90046001600160401b0316831061100e57610fc38383611b62565b6004848154811061102157611021611af5565b600091825260209091206003909102015461104c90600160c01b90046001600160401b031683611b62565b6004858154811061105f5761105f611af5565b906000526020600020906003020160000160149054906101000a900463ffffffff1663ffffffff16846004878154811061109b5761109b611af5565b60009182526020909120600390910201546110c69190600160c01b90046001600160401b0316611b62565b6110d09190611b21565b610fc39190611bf2565b9392505050565b600080600484815481106110f7576110f7611af5565b600091825260208083208784526006825260408085206001600160a01b03898116875293528085206003949094029091016002810154815492516370a0823160e01b81523060048201529196509394600160801b9094046001600160801b0316939291909116906370a0823190602401602060405180830381865afa158015611184573d6000803e3d6000fd5b505050506040513d601f19601f820116820180604052508101906111a89190611bae565b6002850154909150600160401b90046001600160401b0316431180156111cd57508015155b1561125c5760028401546000906111f6908990600160401b90046001600160401b031643610f42565b60075460028701546003549293506000926001600160401b039091169061121d9085611b21565b6112279190611b21565b6112319190611b40565b90508261124364e8d4a5100083611b21565b61124d9190611b40565b6112579085611bf2565b935050505b6001830154835464e8d4a5100090611275908590611b21565b61127f9190611b40565b6112899190611b62565b979650505050505050565b6000546001600160a01b031633146112be5760405162461bcd60e51b815260040161046190611b79565b6112c7826106da565b6112d0816117bb565b600483815481106112e3576112e3611af5565b906000526020600020906003020160000160146101000a81548163ffffffff021916908363ffffffff160217905550817f3218a9351994eb41cf8301b9004b97dcff092f8e7a7e0c498c606bc09329e8698260405161134491815260200190565b60405180910390a25050565b600260015414156113735760405162461bcd60e51b815260040161046190611abe565b600260018190555060006004838154811061139057611390611af5565b600091825260208083208684526006825260408085203386529092529220600390910290910191506113c1846106da565b805415611421576001810154600283015482546000929164e8d4a51000916113f991600160801b90046001600160801b031690611b21565b6114039190611b40565b61140d9190611b62565b9050801561141f5761141f33826115ca565b505b82156114c3578154604051632142170760e11b8152336004820152306024820152604481018590526001600160a01b03909116906342842e0e90606401600060405180830381600087803b15801561147857600080fd5b505af115801561148c573d6000803e3d6000fd5b50505050828260010160008282546114a49190611bf2565b90915550508054839082906000906114bd908490611bf2565b90915550505b6002820154815464e8d4a51000916114ec91600160801b9091046001600160801b031690611b21565b6114f69190611b40565b6001820155604051838152849033907f90890809c654f11d6e72a28fa60149770a0d11ec6c92319d6ceb2bb0a4ea1a1590602001610a85565b6000546001600160a01b031633146115595760405162461bcd60e51b815260040161046190611b79565b6001600160a01b0381166115be5760405162461bcd60e51b815260206004820152602660248201527f4f776e61626c653a206e6577206f776e657220697320746865207a65726f206160448201526564647265737360d01b6064820152608401610461565b6115c781611820565b50565b6002546040516370a0823160e01b81523060048201526000916001600160a01b0316906370a0823190602401602060405180830381865afa158015611613573d6000803e3d6000fd5b505050506040513d601f19601f820116820180604052508101906116379190611bae565b9050808211156116ad5760025460405163423f6cef60e01b81526001600160a01b038581166004830152602482018490529091169063423f6cef906044015b600060405180830381600087803b15801561169057600080fd5b505af11580156116a4573d6000803e3d6000fd5b50505050505050565b60025460405163423f6cef60e01b81526001600160a01b038581166004830152602482018590529091169063423f6cef90604401611676565b60006001600160801b0382111561174f5760405162461bcd60e51b815260206004820152602760248201527f53616665436173743a2076616c756520646f65736e27742066697420696e20316044820152663238206269747360c81b6064820152608401610461565b5090565b60006001600160401b0382111561174f5760405162461bcd60e51b815260206004820152602660248201527f53616665436173743a2076616c756520646f65736e27742066697420696e203660448201526534206269747360d01b6064820152608401610461565b600063ffffffff82111561174f5760405162461bcd60e51b815260206004820152602660248201527f53616665436173743a2076616c756520646f65736e27742066697420696e203360448201526532206269747360d01b6064820152608401610461565b600080546001600160a01b038381166001600160a01b0319831681178455604051919092169283917f8be0079c531659141344cd1fd0a4f28419497f9722a3daafe3b4186f6b6457e09190a35050565b60006020828403121561188257600080fd5b5035919050565b6000806040838503121561189c57600080fd5b50508035926020909101359150565b80356001600160a01b03811681146118c257600080fd5b919050565b803580151581146118c257600080fd5b600080600080600060a086880312156118ef57600080fd5b853594506118ff602087016118ab565b935061190d604087016118c7565b94979396509394606081013594506080013592915050565b60008060006060848603121561193a57600080fd5b8335925060208401359150611951604085016118c7565b90509250925092565b60006020828403121561196c57600080fd5b6110da826118ab565b60008060006060848603121561198a57600080fd5b505081359360208301359350604090920135919050565b600080604083850312156119b457600080fd5b823591506119c4602084016118ab565b90509250929050565b634e487b7160e01b600052604160045260246000fd5b600080600080608085870312156119f957600080fd5b611a02856118ab565b9350611a10602086016118ab565b92506040850135915060608501356001600160401b0380821115611a3357600080fd5b818701915087601f830112611a4757600080fd5b813581811115611a5957611a596119cd565b604051601f8201601f19908116603f01168101908382118183101715611a8157611a816119cd565b816040528281528a6020848701011115611a9a57600080fd5b82602086016020830137600060208483010152809550505050505092959194509250565b6020808252601f908201527f5265656e7472616e637947756172643a207265656e7472616e742063616c6c00604082015260600190565b634e487b7160e01b600052603260045260246000fd5b634e487b7160e01b600052601160045260246000fd5b6000816000190483118215151615611b3b57611b3b611b0b565b500290565b600082611b5d57634e487b7160e01b600052601260045260246000fd5b500490565b600082821015611b7457611b74611b0b565b500390565b6020808252818101527f4f776e61626c653a2063616c6c6572206973206e6f7420746865206f776e6572604082015260600190565b600060208284031215611bc057600080fd5b5051919050565b60006001600160801b03808316818516808303821115611be957611be9611b0b565b01949350505050565b60008219821115611c0557611c05611b0b565b500190565b6000600019821415611c1e57611c1e611b0b565b506001019056fea2646970667358221220505517bfd0f93a11958d9a11f1a8d0ee7589fa8e591319cbbb9686507acf1ea064736f6c634300080c0033",
  "linkReferences": {},
  "deployedLinkReferences": {}
}