{
  "_format": "hh-sol-artifact-1",
  "contractName": "StakingFactory",
  "sourceName": "contracts/farming/StakingFactory.sol",
  "abi": [
    {
      "inputs": [
        {
          "internalType": "address",
          "name": "_multisig",
          "type": "address"
        }
      ],
      "stateMutability": "nonpayable",
      "type": "constructor"
    },
    {
      "anonymous": false,
      "inputs": [
        {
          "indexed": true,
          "internalType": "address",
          "name": "staking",
          "type": "address"
        }
      ],
      "name": "NewStakingContract",
      "type": "event"
    },
    {
      "anonymous": false,
      "inputs": [
        {
          "indexed": true,
          "internalType": "address",
          "name": "previousOwner",
          "type": "address"
        },
        {
          "indexed": true,
          "internalType": "address",
          "name": "newOwner",
          "type": "address"
        }
      ],
      "name": "OwnershipTransferred",
      "type": "event"
    },
    {
      "inputs": [
        {
          "internalType": "address",
          "name": "_stakedToken",
          "type": "address"
        },
        {
          "internalType": "address",
          "name": "_rewardToken",
          "type": "address"
        },
        {
          "internalType": "uint256",
          "name": "_rewardPerBlock",
          "type": "uint256"
        },
        {
          "internalType": "uint256",
          "name": "_startBlock",
          "type": "uint256"
        },
        {
          "internalType": "uint256",
          "name": "_rewardEndBlock",
          "type": "uint256"
        },
        {
          "internalType": "uint256",
          "name": "_poolLimitPerUser",
          "type": "uint256"
        },
        {
          "internalType": "uint256",
          "name": "_numberBlocksForUserLimit",
          "type": "uint256"
        },
        {
          "internalType": "address",
          "name": "_multisig",
          "type": "address"
        }
      ],
      "name": "deployPool",
      "outputs": [
        {
          "internalType": "address",
          "name": "staking",
          "type": "address"
        }
      ],
      "stateMutability": "nonpayable",
      "type": "function"
    },
    {
      "inputs": [],
      "name": "owner",
      "outputs": [
        {
          "internalType": "address",
          "name": "",
          "type": "address"
        }
      ],
      "stateMutability": "view",
      "type": "function"
    },
    {
      "inputs": [],
      "name": "renounceOwnership",
      "outputs": [],
      "stateMutability": "nonpayable",
      "type": "function"
    },
    {
      "inputs": [
        {
          "internalType": "address",
          "name": "newOwner",
          "type": "address"
        }
      ],
      "name": "transferOwnership",
      "outputs": [],
      "stateMutability": "nonpayable",
      "type": "function"
    }
  ],
  "bytecode": "0x608060405234801561001057600080fd5b5060405161245d38038061245d83398101604081905261002f91610167565b61003833610047565b61004181610097565b50610197565b600080546001600160a01b038381166001600160a01b0319831681178455604051919092169283917f8be0079c531659141344cd1fd0a4f28419497f9722a3daafe3b4186f6b6457e09190a35050565b6000546001600160a01b031633146100f65760405162461bcd60e51b815260206004820181905260248201527f4f776e61626c653a2063616c6c6572206973206e6f7420746865206f776e657260448201526064015b60405180910390fd5b6001600160a01b03811661015b5760405162461bcd60e51b815260206004820152602660248201527f4f776e61626c653a206e6577206f776e657220697320746865207a65726f206160448201526564647265737360d01b60648201526084016100ed565b61016481610047565b50565b60006020828403121561017957600080fd5b81516001600160a01b038116811461019057600080fd5b9392505050565b6122b7806101a66000396000f3fe608060405234801561001057600080fd5b506004361061004c5760003560e01c8063715018a6146100515780638da5cb5b1461005b578063bbc22f5014610084578063f2fde38b14610097575b600080fd5b6100596100aa565b005b6000546001600160a01b03165b6040516001600160a01b03909116815260200160405180910390f35b6100686100923660046104ae565b6100e9565b6100596100a5366004610522565b61039a565b6000546001600160a01b031633146100dd5760405162461bcd60e51b81526004016100d490610544565b60405180910390fd5b6100e76000610435565b565b600080546001600160a01b031633146101145760405162461bcd60e51b81526004016100d490610544565b6000896001600160a01b03166318160ddd6040518163ffffffff1660e01b8152600401602060405180830381865afa158015610154573d6000803e3d6000fd5b505050506040513d601f19601f820116820180604052508101906101789190610579565b101561018357600080fd5b6000886001600160a01b03166318160ddd6040518163ffffffff1660e01b8152600401602060405180830381865afa1580156101c3573d6000803e3d6000fd5b505050506040513d601f19601f820116820180604052508101906101e79190610579565b10156101f257600080fd5b876001600160a01b0316896001600160a01b031614156102545760405162461bcd60e51b815260206004820152601b60248201527f546f6b656e73206d75737420626520626520646966666572656e74000000000060448201526064016100d4565b6040516bffffffffffffffffffffffff1960608b811b821660208401528a901b16603482015260488101879052606801604051602081830303815290604052805190602001206040516102a690610485565b8190604051809103906000f59050801580156102c6573d6000803e3d6000fd5b50604051632aa2c38160e01b81526001600160a01b038b811660048301528a81166024830152604482018a9052606482018990526084820188905260a4820187905260c4820186905284811660e483015291925090821690632aa2c3819061010401600060405180830381600087803b15801561034257600080fd5b505af1158015610356573d6000803e3d6000fd5b50506040516001600160a01b03841692507ff228d09c7f9308ef1c29067a996fb4332eab58e7a67d0b405cf84ffba2fd20569150600090a298975050505050505050565b6000546001600160a01b031633146103c45760405162461bcd60e51b81526004016100d490610544565b6001600160a01b0381166104295760405162461bcd60e51b815260206004820152602660248201527f4f776e61626c653a206e6577206f776e657220697320746865207a65726f206160448201526564647265737360d01b60648201526084016100d4565b61043281610435565b50565b600080546001600160a01b038381166001600160a01b0319831681178455604051919092169283917f8be0079c531659141344cd1fd0a4f28419497f9722a3daafe3b4186f6b6457e09190a35050565b611cef8061059383390190565b80356001600160a01b03811681146104a957600080fd5b919050565b600080600080600080600080610100898b0312156104cb57600080fd5b6104d489610492565b97506104e260208a01610492565b965060408901359550606089013594506080890135935060a0890135925060c0890135915061051360e08a01610492565b90509295985092959890939650565b60006020828403121561053457600080fd5b61053d82610492565b9392505050565b6020808252818101527f4f776e61626c653a2063616c6c6572206973206e6f7420746865206f776e6572604082015260600190565b60006020828403121561058b57600080fd5b505191905056fe60a060405234801561001057600080fd5b5061001a33610027565b6001805533608052610077565b600080546001600160a01b038381166001600160a01b0319831681178455604051919092169283917f8be0079c531659141344cd1fd0a4f28419497f9722a3daafe3b4186f6b6457e09190a35050565b608051611c566100996000396000818161031501526104b90152611c566000f3fe608060405234801561001057600080fd5b50600436106101215760003560e01c806392e8990e116100ad578063ccd34cd511610071578063ccd34cd51461034a578063db2e21bc14610361578063f2fde38b14610369578063f40f0f521461037c578063feaea5861461038f57600080fd5b806392e8990e146102d25780639513997f146102ea578063a0b40905146102fd578063aac551e114610310578063b6b55f251461033757600080fd5b80632e1a7d4d116100f45780632e1a7d4d146102775780633279beab1461028a578063715018a61461029d57806380dc0672146102a55780638da5cb5b146102ad57600080fd5b806301f8a9761461012657806316f0115b1461013b5780631959a002146102285780632aa2c38114610264575b600080fd5b610139610134366004611825565b6103a2565b005b6003546004546005546006546007546008546009546101aa9660ff808216976001600160a01b036101008404811698600160a81b90940490921696918116956001600160401b03600160a01b90920482169584831695600160401b8604841695600160801b900490931693928c565b604080519c15158d526001600160a01b039b8c1660208e0152991515998c01999099529890961660608a01526001600160401b0394851660808a015292841660a089015290831660c08801529190911660e0860152610100850152610120840152610140830191909152610160820152610180015b60405180910390f35b61024f61023636600461185a565b600a602052600090815260409020805460019091015482565b6040805192835260208301919091520161021f565b61013961027236600461187c565b610465565b610139610285366004611825565b610720565b610139610298366004611825565b6108a9565b6101396108ed565b610139610923565b6000546001600160a01b03165b6040516001600160a01b03909116815260200161021f565b6102da6109ab565b604051901515815260200161021f565b6101396102f83660046118f0565b610a0a565b61013961030b366004611920565b610c28565b6102ba7f000000000000000000000000000000000000000000000000000000000000000081565b610139610345366004611825565b610d4a565b61035360025481565b60405190815260200161021f565b610139610f18565b61013961037736600461185a565b610fbf565b61035361038a36600461185a565b611057565b61013961039d36600461194c565b611160565b6000546001600160a01b031633146103d55760405162461bcd60e51b81526004016103cc9061197f565b60405180910390fd5b600454600160a01b90046001600160401b031643106104295760405162461bcd60e51b815260206004820152601060248201526f141bdbdb081a185cc81cdd185c9d195960821b60448201526064016103cc565b60088190556040518181527f0c4d677eef92893ac7ec52faf8140fc6c851ab4736302b4f3a89dfb20696a0df906020015b60405180910390a150565b60035460ff16156104ae5760405162461bcd60e51b8152602060048201526013602482015272105b1c9958591e481a5b9a5d1a585b1a5e9959606a1b60448201526064016103cc565b336001600160a01b037f000000000000000000000000000000000000000000000000000000000000000016146105145760405162461bcd60e51b815260206004820152600b60248201526a4e6f7420666163746f727960a81b60448201526064016103cc565b600380546001600160a01b03808b16610100026001600160a81b031990921691909117600117909155600480549189166001600160a01b031990921691909117905561055f8561138b565b600480546001600160401b0392909216600160a01b0267ffffffffffffffff60a01b199092169190911790556105948461138b565b6005805467ffffffffffffffff19166001600160401b03929092169190911790556105be8561138b565b600580546001600160401b0392909216600160401b0267ffffffffffffffff60401b1990921691909117905560088690558215610643576003805460ff60a81b1916600160a81b17905560068390556106168261138b565b600580546001600160401b0392909216600160801b0267ffffffffffffffff60801b199092169190911790555b6000876001600160a01b031663313ce5676040518163ffffffff1660e01b8152600401602060405180830381865afa158015610683573d6000803e3d6000fd5b505050506040513d601f19601f820116820180604052508101906106a791906119b4565b60ff169050601e81106106f35760405162461bcd60e51b815260206004820152601460248201527304d757374206265206c657373207468616e2033360641b60448201526064016103cc565b6106fe81601e6119ed565b61070990600a611ae8565b60025561071582610fbf565b505050505050505050565b600260015414156107435760405162461bcd60e51b81526004016103cc90611af4565b6002600155336000908152600a6020526040902080548211156107a85760405162461bcd60e51b815260206004820152601b60248201527f416d6f756e7420746f20776974686472617720746f6f2068696768000000000060448201526064016103cc565b6107b06113f7565b6007546001820154600254835460009291906107cd908590611b2b565b6107d79190611b4a565b6107e191906119ed565b9050831561082e5782546107f69085906119ed565b83556009805485919060009061080d9084906119ed565b909155505060035461082e9061010090046001600160a01b0316338661152d565b801561084b5760045461084b906001600160a01b0316338361152d565b600254835461085b908490611b2b565b6108659190611b4a565b600184015560405184815233907f884edad9ce6fa2440d8a54cc123490eb96d2768479d49ff9c7366125a94243649060200160405180910390a25050600180555050565b6000546001600160a01b031633146108d35760405162461bcd60e51b81526004016103cc9061197f565b6004546108ea906001600160a01b0316338361152d565b50565b6000546001600160a01b031633146109175760405162461bcd60e51b81526004016103cc9061197f565b6109216000611648565b565b6000546001600160a01b0316331461094d5760405162461bcd60e51b81526004016103cc9061197f565b6109564361138b565b6005805467ffffffffffffffff19166001600160401b039290921691821790556040519081527ffed9fcb0ca3d1e761a4b929792bb24082fba92dca81252646ad306d3068065669060200160405180910390a1565b600354600090600160a81b900460ff1615806109f957506005546004546109ec916001600160401b03600160801b909104811691600160a01b900416611b6c565b6001600160401b03164310155b15610a045750600090565b50600190565b6000546001600160a01b03163314610a345760405162461bcd60e51b81526004016103cc9061197f565b600454600160a01b90046001600160401b03164310610a885760405162461bcd60e51b815260206004820152601060248201526f141bdbdb081a185cc81cdd185c9d195960821b60448201526064016103cc565b808210610aee5760405162461bcd60e51b815260206004820152602e60248201527f4e6577207374617274426c6f636b206d757374206265206c6f7765722074686160448201526d6e206e657720656e64426c6f636b60901b60648201526084016103cc565b814310610b565760405162461bcd60e51b815260206004820152603060248201527f4e6577207374617274426c6f636b206d7573742062652068696768657220746860448201526f616e2063757272656e7420626c6f636b60801b60648201526084016103cc565b610b5f8261138b565b600480546001600160401b0392909216600160a01b0267ffffffffffffffff60a01b19909216919091179055610b948161138b565b6005805467ffffffffffffffff19166001600160401b0392909216919091179055610bbe8261138b565b600580546001600160401b0392909216600160401b0267ffffffffffffffff60401b1990921691909117905560408051838152602081018390527f7cd0ab87d19036f3dfadadb232c78aa4879dda3f0c994a9d637532410ee2ce0691015b60405180910390a15050565b6000546001600160a01b03163314610c525760405162461bcd60e51b81526004016103cc9061197f565b600354600160a81b900460ff16610c995760405162461bcd60e51b815260206004820152600b60248201526a135d5cdd081899481cd95d60aa1b60448201526064016103cc565b8115610cfa576006548111610cf05760405162461bcd60e51b815260206004820152601860248201527f4e6577206c696d6974206d75737420626520686967686572000000000000000060448201526064016103cc565b6006819055610d17565b6003805460ff60a81b1916600160a81b8415150217905560006006555b6006546040519081527f241f67ee5f41b7a5cabf911367329be7215900f602ebfc47f89dce2a6bcd847c90602001610c1c565b60026001541415610d6d5760405162461bcd60e51b81526004016103cc90611af4565b6002600155336000908152600a60205260409020610d896109ab565b6003805460ff60a81b1916600160a81b9215158302179081905560ff919004161580610dc257506006548154610dbf9084611b97565b11155b610e0e5760405162461bcd60e51b815260206004820152601b60248201527f4465706f7369743a20416d6f756e742061626f7665206c696d6974000000000060448201526064016103cc565b610e166113f7565b600754815415610e6f5760008260010154600254838560000154610e3a9190611b2b565b610e449190611b4a565b610e4e91906119ed565b90508015610e6d57600454610e6d906001600160a01b0316338361152d565b505b8215610ebb578154610e82908490611b97565b825560098054849190600090610e99908490611b97565b9091555050600354610ebb9061010090046001600160a01b0316333086611698565b6002548254610ecb908390611b2b565b610ed59190611b4a565b600183015560405183815233907fe1fffcc4923d04b559f4d29a8bfc6cda04eb5b0d3c460751c2402c5c5cc9109c9060200160405180910390a250506001805550565b60026001541415610f3b5760405162461bcd60e51b81526004016103cc90611af4565b60026001908155336000908152600a60205260408120805482825592810191909155908015610f8057600354610f809061010090046001600160a01b0316338361152d565b815460405190815233907f5fafa99d0643513820be26656b45130b01e1c03062e1266bf36f88cbd3bd96959060200160405180910390a2505060018055565b6000546001600160a01b03163314610fe95760405162461bcd60e51b81526004016103cc9061197f565b6001600160a01b03811661104e5760405162461bcd60e51b815260206004820152602660248201527f4f776e61626c653a206e6577206f776e657220697320746865207a65726f206160448201526564647265737360d01b60648201526084016103cc565b6108ea81611648565b6001600160a01b0381166000908152600a60205260408120600954600754600554600160401b90046001600160401b03164311801561109557508115155b1561112e576005546000906110ba90600160401b90046001600160401b0316436117c8565b6008549091506000906110cd9083611b2b565b9050600084600254836110e09190611b2b565b6110ea9190611b4a565b6110f49085611b97565b9050856001015460025482886000015461110e9190611b2b565b6111189190611b4a565b61112291906119ed565b98975050505050505050565b60018301546002548454611143908490611b2b565b61114d9190611b4a565b61115791906119ed565b95945050505050565b6000546001600160a01b0316331461118a5760405162461bcd60e51b81526004016103cc9061197f565b6003546001600160a01b038381166101009092041614156111fd5760405162461bcd60e51b815260206004820152602760248201527f4f7065726174696f6e733a2043616e6e6f74207265636f766572207374616b6560448201526632103a37b5b2b760c91b60648201526084016103cc565b6004546001600160a01b038381169116141561126b5760405162461bcd60e51b815260206004820152602760248201527f4f7065726174696f6e733a2043616e6e6f74207265636f76657220726577617260448201526632103a37b5b2b760c91b60648201526084016103cc565b6040516370a0823160e01b81523060048201526000906001600160a01b038416906370a0823190602401602060405180830381865afa1580156112b2573d6000803e3d6000fd5b505050506040513d601f19601f820116820180604052508101906112d69190611baf565b9050806113355760405162461bcd60e51b815260206004820152602760248201527f4f7065726174696f6e733a2043616e6e6f74207265636f766572207a65726f2060448201526662616c616e636560c81b60648201526084016103cc565b61134083838361152d565b604080516001600160a01b038481168252602082018490528516917f12908d7ca4e5f7eaa347942be653a85ee08a103570143e4a7309fca3243bdf60910160405180910390a2505050565b60006001600160401b038211156113f35760405162461bcd60e51b815260206004820152602660248201527f53616665436173743a2076616c756520646f65736e27742066697420696e203660448201526534206269747360d01b60648201526084016103cc565b5090565b600554600160401b90046001600160401b03164311156109215760095480156114b05760055460009061143a90600160401b90046001600160401b0316436117c8565b60085490915060009061144d9083611b2b565b9050826002548261145e9190611b2b565b6114689190611b4a565b6007546114759190611b97565b6007556114814361138b565b600580546001600160401b0392909216600160401b0267ffffffffffffffff60401b1990921691909117905550505b6114b94361138b565b6005805467ffffffffffffffff60401b1916600160401b6001600160401b03938416810291909117918290556007546040805192909304909316815260208101849052908101919091527ff5d2d72d9b25d6853afd7d0554a113b705234b6a68bb36b7f1436629946324119060600161045a565b604080516001600160a01b038481166024830152604480830185905283518084039091018152606490920183526020820180516001600160e01b031663a9059cbb60e01b17905291516000928392908716916115899190611bc8565b6000604051808303816000865af19150503d80600081146115c6576040519150601f19603f3d011682016040523d82523d6000602084013e6115cb565b606091505b50915091508180156115f55750805115806115f55750808060200190518101906115f59190611c03565b6116415760405162461bcd60e51b815260206004820152601f60248201527f5472616e7366657248656c7065723a205452414e534645525f4641494c45440060448201526064016103cc565b5050505050565b600080546001600160a01b038381166001600160a01b0319831681178455604051919092169283917f8be0079c531659141344cd1fd0a4f28419497f9722a3daafe3b4186f6b6457e09190a35050565b604080516001600160a01b0385811660248301528481166044830152606480830185905283518084039091018152608490920183526020820180516001600160e01b03166323b872dd60e01b17905291516000928392908816916116fc9190611bc8565b6000604051808303816000865af19150503d8060008114611739576040519150601f19603f3d011682016040523d82523d6000602084013e61173e565b606091505b50915091508180156117685750805115806117685750808060200190518101906117689190611c03565b6117c05760405162461bcd60e51b8152602060048201526024808201527f5472616e7366657248656c7065723a205452414e534645525f46524f4d5f46416044820152631253115160e21b60648201526084016103cc565b505050505050565b6005546000906001600160401b031682116117ee576117e783836119ed565b905061181f565b6005546001600160401b031683106118085750600061181f565b6005546117e79084906001600160401b03166119ed565b92915050565b60006020828403121561183757600080fd5b5035919050565b80356001600160a01b038116811461185557600080fd5b919050565b60006020828403121561186c57600080fd5b6118758261183e565b9392505050565b600080600080600080600080610100898b03121561189957600080fd5b6118a28961183e565b97506118b060208a0161183e565b965060408901359550606089013594506080890135935060a0890135925060c089013591506118e160e08a0161183e565b90509295985092959890939650565b6000806040838503121561190357600080fd5b50508035926020909101359150565b80151581146108ea57600080fd5b6000806040838503121561193357600080fd5b823561193e81611912565b946020939093013593505050565b6000806040838503121561195f57600080fd5b6119688361183e565b91506119766020840161183e565b90509250929050565b6020808252818101527f4f776e61626c653a2063616c6c6572206973206e6f7420746865206f776e6572604082015260600190565b6000602082840312156119c657600080fd5b815160ff8116811461187557600080fd5b634e487b7160e01b600052601160045260246000fd5b6000828210156119ff576119ff6119d7565b500390565b600181815b80851115611a3f578160001904821115611a2557611a256119d7565b80851615611a3257918102915b93841c9390800290611a09565b509250929050565b600082611a565750600161181f565b81611a635750600061181f565b8160018114611a795760028114611a8357611a9f565b600191505061181f565b60ff841115611a9457611a946119d7565b50506001821b61181f565b5060208310610133831016604e8410600b8410161715611ac2575081810a61181f565b611acc8383611a04565b8060001904821115611ae057611ae06119d7565b029392505050565b60006118758383611a47565b6020808252601f908201527f5265656e7472616e637947756172643a207265656e7472616e742063616c6c00604082015260600190565b6000816000190483118215151615611b4557611b456119d7565b500290565b600082611b6757634e487b7160e01b600052601260045260246000fd5b500490565b60006001600160401b03808316818516808303821115611b8e57611b8e6119d7565b01949350505050565b60008219821115611baa57611baa6119d7565b500190565b600060208284031215611bc157600080fd5b5051919050565b6000825160005b81811015611be95760208186018101518583015201611bcf565b81811115611bf8576000828501525b509190910192915050565b600060208284031215611c1557600080fd5b81516118758161191256fea264697066735822122088255ebe31451c6c80e624083374ee9abf234be1c605e46dfeb5b09a46db487b64736f6c634300080c0033a264697066735822122067481b30d581d546710d89895baca6bef32b628a4a914d7ae1385e3e7d9f52f064736f6c634300080c0033",
  "linkReferences": {},
  "deployedLinkReferences": {}
}